:060000000A128A110C280F
:10000800FE00030EF0000A08F1000A168A11DC2D22
:100018000A128A110F288313C230FD001530FE0022
:100028006D30FF00A03084000A168A110F250A12CD
:100038008A117030FD000730FE00FC30FF006D3083
:1000480084000A168A110F250A128A110A128A11C7
:10005800FF270A128A11FB0083160313C201C3018A
:10006800C401C50183120313E401E501E601E701B8
:10007800E801E901EA01EB01EC01FA0183010A1246
:100088008A156D2A83120313E0000A168A11D726EF
:100098000A128A113330831203136D06031D552883
:1000A8005628062A0A168A11E7240A128A113930B4
:1000B80083120313A0009130A1008030A2000A121D
:1000C8008A1512200A128A11831203136B08D400AE
:1000D8005407A03E840083130008A000840A000887
:1000E8008403A1008630A2000A128A1512200A127F
:1000F8008A11333083120313A0009130A100C0305D
:10010800A2000A128A1512200A128A11C630831216
:100118000313A0000A30F2000030F3006908D4008D
:10012800D5015408F4005508F5000A168A11352738
:100138000A128A117208303E0A168A111E250A12FE
:100148008A11C73083120313A0000A30F20000306E
:10015800F3006908D400D5015408F4005508F500E7
:100168000A168A1180260A128A117208303E0A1667
:100178008A111E250A128A11C83083120313A0009F
:100188003A300A168A111E250A128A11C9308312BA
:100198000313A0000A30F2000030F3006A08D4000C
:1001A800D5015408F4005508F5000A168A113527B8
:1001B8000A128A117208303E0A168A111E250A127E
:1001C8008A11CA3083120313A0000A30F2000030EB
:1001D800F3006A08D400D5015408F4005508F50066
:1001E8000A168A1180260A128A117208303E0A16E7
:1001F8008A111E250A128A11FF3083120313ED009B
:10020800333083120313D600BB30D500DF30D4005F
:10021800D40B0C29D50B0C29D60B0C290A168A11DC
:10022800E7240A128A11E33083120313A0009030E6
:10023800A1008030A2000A128A1512200A128A111F
:10024800333083120313A0009130A100C030A20004
:100258000A128A1512200A128A1112308312031305
:10026800A0009030A1009030A2000A128A15122036
:100278000A128A113C30F2008312031369080A1625
:100288008A11F8240A128A11831203136A07E400F8
:10029800E8006808D400D501D601D7015708F50051
:1002A8005608F4005508F3005408F20001300A1209
:1002B8008A1146270A128A11750883120313AD00A2
:1002C8007408AC007308AB007208AA003E30A9009D
:1002D800EB30A8008530A7001F30A6000A128A114B
:1002E80004240A128A11831203132908C300280858
:1002F800C2002708C1002608C0000A128A15B320C8
:100308000A128A11831203134008E7006808D40010
:10031800D501D601D7015708F5005608F40055084D
:10032800F3005408F20001300A128A1146270A1213
:100338008A11750883120313AD007408AC007308A2
:10034800AB007208AA003D30A900F530A800C23001
:10035800A7008F30A6000A128A1104240A128A11F3
:10036800831203132908C3002808C2002708C10004
:100378002608C0000A128A15B3200A128A118312AD
:1003880003134008E6006808D400D501D601D70158
:100398005708F5005608F4005508F3005408F20011
:1003A80001300A128A1146270A128A117508831227
:1003B8000313AD007408AC007308AB007208AA0000
:1003C8003E30A900D730A8000A30A7003D30A6006B
:1003D8000A128A1104240A128A11831203132908A3
:1003E800C3002808C2002708C1002608C0000A1256
:1003F8008A15B3200A128A11831203134008E500F4
:10040800121507151F306006031D0B2A0C2A102A27
:10041800121107114430EE003C30F20069080A1648
:100428008A11F8240A128A11831203136A07E80052
:1004380008306B020318212A222A7F2A6408D40074
:10044800D5015508D70067085402D600031CD70306
:100458005708803A803C031D332A56086802031C5B
:10046800362A372A452A563083120313A0009130C2
:10047800A1008A30A2000A128A1512200A128A11D3
:10048800442B831203136408D400D5015508D70000
:1004980067085402D600031CD7035708D90065081B
:1004A8005602D800031CD9035908803A803C031D22
:1004B8005F2A58086802031C622A632A712A3F309F
:1004C80083120313A0009130A1008A30A2000A12FF
:1004D8008A1512200A128A11442B5B3083120313E7
:1004E800A0009130A1008A30A2000A128A151220B9
:1004F8000A128A11442B08306B06031D842A852AA8
:10050800272B6808D400D501D601D7015708F50074
:100518005608F4005508F3005408F20001300A1296
:100528008A1146270A128A11750883120313CB0011
:100538007408CA007308C9007208C8006408D800A3
:10054800D901DA01DB015B08F5005A08F400590803
:10055800F3005808F20001300A128A1146270A12DD
:100568008A11750883120313C7007408C60073083C
:10057800C5007208C4006408DC00DD01DE01DF018B
:100588005F08F5005E08F4005D08F3005C08F200FF
:1005980001300A128A1146270A128A117508831235
:1005A8000313AD007408AC007308AB007208AA000E
:1005B8003E30A900CC30A800CC30A700CD30A60032
:1005C8000A128A1104240A128A11831203132908B1
:1005D800C3002808C2002708C1002608C0000A1660
:1005E8008A118F250A128A11831203134308CF0038
:1005F8004208CE004108CD004008CC000A128A15F6
:10060800C9210A128A11031C0A2B0B2B192B3F3004
:1006180083120313A0009130A1008A30A2000A12AD
:100628008A1512200A128A11442B5B308312031395
:10063800A0009130A1008A30A2000A128A15122067
:100648000A128A11442B09306B06031D2C2B2D2B03
:10065800392B5B30A0009130A1008A30A2000A1229
:100668008A1512200A128A11442B5630A0009130A4
:10067800A1008030A2000A128A1512200A128A11DB
:10068800C63083120313A0000A30F2000030F300D2
:100698006908D400D5015408F4005508F5000A1675
:1006A8008A1135270A128A117208303E0A168A11F1
:1006B8001E250A128A11C73083120313A0000A30BC
:1006C800F2000030F3006908D400D5015408F400A2
:1006D8005508F5000A168A1180260A128A1172082E
:1006E800303E0A168A111E250A128A11C830831252
:1006F8000313A0003A300A168A111E250A128A111D
:10070800C93083120313A0000A30F2000030F3004E
:100718006A08D400D5015408F4005508F5000A16F3
:100728008A1135270A128A117208303E0A168A1170
:100738001E250A128A11CA3083120313A0000A3038
:10074800F2000030F3006A08D400D5015408F40020
:100758005508F5000A168A1180260A128A117208AD
:10076800303E0A168A111E250A128A1183120313B3
:100778006908031DC02BC12B032C6A08031DC52B58
:10078800C62B032C0A168A11E7240A128A1183122F
:100798000313071187144230A0009030A100803065
:1007A800A2000A128A1512200A128A1151308312E5
:1007B8000313A0009030A100C030A2000A128A15CD
:1007C80012200A128A11333083120313D600BB3069
:1007D800D500DF30D400D40BEF2BD50BEF2BD60B85
:1007E800EF2B013083120313EE001130ED000A16CF
:1007F8008A11E7240A128A1183120313871008004A
:10080800831203132908B3008030B3052908AE000A
:100818002E07B900A81F112C122C132C39143908D3
:100828000319172C182C272C390A031D1C2C1D2CD6
:10083800252C0030A9000030A8000030A7000030A7
:10084800A600A8172F2C0030A9000030A8000030FF
:10085800A7000030A6002D088039B3062D08AE0089
:100868002E07B400AC1F392C3A2C3B2C3414340816
:1008780003193F2C402C4F2C340A031D442C452CC3
:100888004D2C0030AD000030AC000030AB00003023
:10089800AA00AC17572C0030AD000030AC00003077
:1008A800AB000030AA00340803195B2C5C2C612CC7
:1008B8003908031D602C612C6A2C0030A900003017
:1008C800A8000030A7000030A600452F2608F20037
:1008D8002C080A168A11B3250A128A117308831282
:1008E8000313BF007208BE003E08AE00AF01B0019E
:1008F800B1013108B8003008B7002F08B6002E083B
:10090800B5003F08AE00AF01B001B1013108BD002C
:100918003008BC002F08BB002E08BA002708F200D8
:100928002B080A168A11B3250A128A117308831232
:100938000313BF007208BE003E08AE00AF01B0014D
:10094800B1012E08B5072F0803110318013E03193A
:10095800AE2CB607300803110318013E0319B52C55
:10096800B707310803110318013E0319BC2CB80757
:100978003F08AE00AF01B001B1012E08BA072F0839
:1009880003110318013E0319CA2CBB0730080311D1
:100998000318013E0319D12CBC07310803110318B1
:1009A800013E0319D82CBD072808F2002A080A16A8
:1009B8008A11B3250A128A11730883120313BF0020
:1009C8007208BE003E08AE00AF01B001B1012E08AA
:1009D800B5072F0803110318013E0319F42CB607B5
:1009E800300803110318013E0319FB2CB70731081F
:1009F80003110318013E0319022DB8073F08AE0082
:100A0800AF01B001B1012E08BA072F08031103186E
:100A1800013E0319102DBB07300803110318013ECE
:100A28000319172DBC07310803110318013E0319D8
:100A38001E2DBD070830AE000310B50DB60DB70D5D
:100A4800B80DAE0B202D2708F2002A080A168A11C5
:100A5800B3250A128A11730883120313BF007208A0
:100A6800BE003E08AE003F08AF00B001B1012E083D
:100A7800B5072F0803110318013E0319442DB607C3
:100A8800300803110318013E03194B2DB70731082D
:100A980003110318013E0319522DB8072608F20066
:100AA8002B080A168A11B3250A128A1173088312B1
:100AB8000313BF007208BE003E08AE003F08AF0037
:100AC800B001B1012E08B5072F0803110318013E24
:100AD80003196F2DB607300803110318013E0319D7
:100AE800762DB707310803110318013E03197D2D30
:100AF800B8070830AE000310B50DB60DB70DB80D28
:100B0800AE0B7F2D2608F2002A080A168A11B32593
:100B18000A128A11730883120313BF007208BE00F9
:100B28003E08AE003F08AF00B001B1012E08B5077E
:100B38002F0803110318013E0319A32DB607300827
:100B480003110318013E0319AA2DB7073108031131
:100B58000318013E0319B12DB8072708F2002C0825
:100B68000A168A11B3250A128A117308831203130D
:100B7800BF007208BE003E08AE003F08AF00B001DB
:100B8800B1012E08BA072F0803110318013E0319F3
:100B9800CE2DBB07300803110318013E0319D52DCC
:100BA800BC07310803110318013E0319DC2DBD07EA
:100BB8002808F2002B080A168A11B3250A128A118E
:100BC800730883120313BF007208BE003E08AE000C
:100BD8003F08AF00B001B1012E08BA072F08031172
:100BE8000318013E0319F92DBB0730080311031838
:100BF800013E0319002EBC07310803110318013EFA
:100C08000319072EBD072808F2002C080A168A11B6
:100C1800B3250A128A11730883120313BF007208DE
:100C2800BE003E08AE003F08AF00B001B101083079
:100C38000310AE0DAF0DB00DB10DFF3E031D1C2E00
:100C48002E08BA072F0803110318013E03192D2E89
:100C5800BB07300803110318013E0319342EBC07E3
:100C6800310803110318013E03193B2EBD0735084F
:100C7800AE003608AF003708B0003808B1001830A9
:100C88000310B10CB00CAF0CAE0CFF3E031D442E8C
:100C98002E08BA072F0803110318013E0319552E11
:100CA800BB07300803110318013E03195C2EBC076B
:100CB800310803110318013E0319632EBD070830DC
:100CC800AE000310B50DB60DB70DB80DAE0B652E01
:100CD80039083407AE00AF01AF0D2E08823EBE00C2
:100CE8002F080318013EFF3EBF00972E0130AE00CB
:100CF8000310BA0DBB0DBC0DBD0DAE0B7C2EB81F7D
:100D0800862E872E882E3A140130AE000310B50DBA
:100D1800B60DB70DB80DAE0B8A2EFF30BE070318FF
:100D2800BF0AFF30BF07BC1F9A2E9B2E7A2EB40134
:100D3800B81F9F2EA02EBC2EFF303505AE00FF3009
:100D48003605AF00FF303705B0007F303805B100F9
:100D5800310830042F042E040319B32EB42EB72EF5
:100D68000130B400BC2E3A1CBA2EBB2EBC2EB42EB9
:100D780034080319C02EC12EF22E0130BA070030F4
:100D880003180130BB07003003180130BC070030DE
:100D980003180130BD073D1CD22ED32EF22E3A087F
:100DA800AE003B08AF003C08B0003D08B100013080
:100DB800B200310DB10CB00CAF0CAE0CB20BDD2E85
:100DC8003108BD003008BC002F08BB002E08BA004F
:100DD8000130BE070318BF0A0030BF073F08803A3A
:100DE800FF0080307F02031DFB2EFF303E02031CF4
:100DF800FE2EFF2E0A2F7F3083120313BD00803092
:100E0800BC000030BB000030BA003B2F8312031334
:100E18003F08803AFF0080307F02031D152F013004
:100E28003E020318182F192F252F003083120313A1
:100E3800BD000030BC000030BB000030BA00B30178
:100E48003B2F831203133E08B900FF30BA05FF3069
:100E5800BB057F30BC050030BD05391C342F352F4C
:100E6800362FBC173908AE0003102E0CBD0033080E
:100E7800BD043D08A9003C08A8003B08A7003A08A3
:100E8800A600080083120313A000200803194D2FA1
:100E98004E2F622FF51F512F522F622F7209A20079
:100EA8007309A3007409A4007509A500A20A03190F
:100EB800A30A0319A40A0319A50A6A2F7508A5002D
:100EC8007408A4007308A3007208A20075087404CB
:100ED80073047204031D712F722F7B2F0030F500ED
:100EE8000030F4000030F3000030F200FB2F9630A1
:100EF800A100892F0130A10701300310A50CA40C13
:100F0800A30CA20CFF3E031D812FFE302505031DF7
:100F18008E2F8F2F7E2FA92F0130A1070130A20716
:100F2800003003180130A307003003180130A4076C
:100F3800003003180130A50701300310A50CA40CDC
:100F4800A30CA20CFF3E031DA12FFF302505031D96
:100F5800AE2FAF2F902FBB2F0130A1020130F6002A
:100F68000310A20DA30DA40DA50DF60BB42FA41B01
:100F7800BE2FBF2FC52F023021020318C42FC52F43
:100F8800B02F2118C82FC92FD12FFF30A205FF304D
:100F9800A3057F30A405FF30A5050310A10C210887
:100FA800F600F701F801F90118300310F60DF70DF6
:100FB800F80DF90DFF3E031DD92F7608A204770816
:100FC800A3047808A4047908A50420080319ED2FC0
:100FD800EE2FF32FF51FF12FF22FF32FA51725086A
:100FE800F5002408F4002308F3002208F2000800A2
:100FF8001134013401340134FF1B0A2883137F188C
:1010080083170008840A0319FF0A08007F087F393C
:101018008A000408840A0319FF0A8200F201831275
:10102800031322080A168A114D250A128A15342834
:10103800F201F20A2108FF00200884000A128A152A
:1010480000200A128A150A168A114D250A128A15D5
:10105800013083120313A0070318A10A0030A10767
:10106800831203132108FF00200884000A128A153E
:1010780000200A128A15003A031D432844281C2818
:101088000800F300831203130608F4003F30F40548
:101098003F3074060319512852285C287B0803192D
:1010A800562857285C28FB017408EC00EF018E28AD
:1010B8003F307406031D6128622871287B08031DD0
:1010C8006628672871280130FB000F306F0203186B
:1010D8006E286F288E286C08B2287B08031D752897
:1010E80076287F2810306F0203187B287C287F28F9
:1010F8000130EF078E287B08031D832884288E285B
:1011080010306F06031D89288A288E280130EF07C2
:101118009930B2287308031D922893289628060848
:101128003F39B2283F300605F2003F3072060319F6
:101138009E289F28A6287B080319A328A428A62848
:10114800FB0193283F300605F2003F307206031D6D
:10115800AE28AF28B1280130FB003F30080003104B
:1011680083120313420D430DC9004908031DBD280E
:10117800BE28C7280030C3000030C2000030C100BC
:101188000030C00028294008C4004108C5004208B2
:10119800C6004308C7001F300310C70CC60CC50C97
:1011A800C40CFF3E031DD0284408C800C217FF30F6
:1011B800C005FF30C105FF30C2050030C3059630B9
:1011C800C902C91FE828E92801294908803A973E39
:1011D8000318EF28F028F128BE2801300310C30CAB
:1011E800C20CC10CC00CFF3E031DF2280130C90718
:1011F800031DFF280029F128182920304902031C63
:10120800062907291329BE280130C4000310C00D80
:10121800C10DC20DC30DC40B0A290130C90249080A
:10122800031D172918290829480803191C291D29ED
:101238002829C009C109C209C309C00A0319C10A7A
:101248000319C20A0319C30A080083120313A3006F
:1012580022306D06031D312932293B290A168A11CD
:10126800E7240A128A15FF3083120313ED00373082
:101278002306031D402941294F290A168A11E7240C
:101288000A128A150130FA0705307A06031D4D291E
:101298004E294F29FA016D3083120313A0009030B4
:1012A800A1008030A2000A128A1512200A128A159B
:1012B8006D3083120313A0009130A100C030A2004A
:1012C8000A128A1512200A128A157A08F800780775
:1012D800B83E84008313000883120313A000840A15
:1012E80000088403A100C230A2000A128A15122045
:1012F8000A128A150530F2000030F3007A08013E20
:10130800F400003003180130F5000A168A1180260F
:101318000A128A157208F8007807B83E8400831309
:10132800000883120313A000840A00088403A100A4
:101338009230A2000A128A1512200A128A15053064
:10134800F2000030F3007A08023EF400003003187F
:101358000130F5000A168A1180260A128A157208C9
:10136800F8007807B83E840083130008831203133B
:10137800A000840A00088403A100D230A2000A1247
:101388008A1512200A128A150800003083120313E6
:101398004805D00000304905D10080304A05D20008
:1013A8007F304B05D3005308520451045004031DE9
:1013B800DE29DF29E7290030CB000030CA000030E1
:1013C800C9000030C80000304C05D00000304D0581
:1013D800D10080304E05D2007F304F05D30053082E
:1013E800520451045004031DFA29FB29032A003032
:1013F800CF000030CE000030CD000030CC00CB1F35
:10140800062A072A2B2A0030D0000030D1000030ED
:10141800D2008030D3004808D0024908031C490F85
:10142800162A172AD1024A08031C4A0F1C2A1D2A09
:10143800D2024B08031C4B0F222A232AD30253083B
:10144800CB005208CA005108C9005008C800CF1F75
:101458002E2A2F2A532A0030D0000030D100003025
:10146800D2008030D3004C08D0024D08031C4D0F29
:101478003E2A3F2AD1024E08031C4E0F442A452A11
:10148800D2024F08031C4F0F4A2A4B2AD302530893
:10149800CF005208CE005108CD005008CC00803053
:1014A800CB068030CF064F084B02031D652A4E0835
:1014B8004A02031D652A4D084902031D652A4C0886
:1014C80048020318682A692A6B2A03106C2A031435
:1014D80008000A168A1133250A128A155F3083120A
:1014E8000313A0009030A1008130A2000A128A15CF
:1014F80012200A128A15143083120313A0009130A7
:10150800A100C530A2000A128A1512200A128A15F3
:10151800323083120313A0009030A1009130A20052
:101528000A128A1512200A128A1501300A128A151F
:1015380045200A128A152F3A031DA32AA42A992A9C
:101548000A168A11E7240A128A150A168A11982798
:101558000A128A1501300A128A1545200A128A15BC
:1015680083120313E3002C30E1000130E200013064
:10157800E1020030031CE203E202610A031DC82AEB
:10158800620A031DC82AC92ABB2A99306306031DAB
:10159800CE2ACF2AD92A6E03031DD32AD42AD92AC0
:1015A8000230EE002230ED00562B99306306031D01
:1015B800DE2ADF2A192B02306E06031DE42AE52AEB
:1015C800192B0330EE000A168A11E7240A128A152D
:1015D800873083120313A0009030A1008030A2004E
:1015E8000A128A1512200A128A15A03083120313D0
:1015F800A0009030A100C030A2000A128A15122063
:101608000A128A15D83083120313A0009030A10063
:101618009030A2000A128A1512200A128A150A129C
:101628008A156F240A128A15562B2F306306031D5C
:101638001E2B1F2B2A2B44306E06031D242B252B13
:101648002A2B0430EE0012150715562B562B63086B
:101658000A128A156A230A128A15AE2A63080A1220
:101668008A1529210A128A15AE2A2F306306031D0E
:101678003E2B3F2B442B0430EE003330ED00AE2AD6
:101688001F306306031D492B4A2B662B0130EE00E1
:101698001130ED00AE2A63080A128A1146200A1298
:1016A8008A15AE2A831203136E08013A03192B2BED
:1016B800033A0319322B013A0319392B073A031954
:1016C8004F2BAE2AAE2A0A128A110C288312031352
:1016D800A50011306D06031D722B732B7C2B0A1687
:1016E8008A11E7240A128A15FF3083120313ED00CA
:1016F80037302506031D812B822B922B0A168A115F
:10170800E7240A128A15013083120313EB070C3001
:101718006B06031D902B912B922BEB012230A0001E
:101728009030A1008030A2000A128A1512200A12F5
:101738008A15C03083120313A0002A300A168A11B2
:101748001E250A128A150A30831203136B02031826
:10175800AE2BAF2BED2B6B08A3002307A03E840014
:1017680083130008A000840A00088403A100C13084
:10177800A2000A128A1512200A128A15831203136C
:101788006B08A3002307A23E840083130008A0006F
:10179800840A00088403A1009130A2000A128A1565
:1017A80012200A128A15831203136B08A300230759
:1017B800A43E840083130008A000840A0008840360
:1017C800A100D130A2000A128A1512200A128A1525
:1017D8006E2C0A306B06031DF22BF32B2F2C6B0893
:1017E800A3002307A03E840083130008A000840AF6
:1017F80000088403A100C130A2000A128A15122031
:101808000A128A15831203136B08A3002307A23E4A
:10181800840083130008A000840A00088403A10040
:101828009130A2000A128A1512200A128A1583160C
:101838000313200883120313A0008316031321083F
:1018480083120313A100D130A2000A128A151220B4
:101858000A128A156E2C0B306B06031D342C352C9E
:101868006E2C6B08A3002307A03E84008313000896
:10187800A000840A00088403A100C130A2000A1253
:101888008A1512200A128A15831603132008831258
:101898000313A00083160313210883120313A10066
:1018A8009130A2000A128A1512200A128A1583168C
:1018B8000313220883120313A000831603132308BB
:1018C80083120313A100D130A2000A128A15122034
:1018D8000A128A150800872D2130EA00AF2D293019
:1018E800EA00AF2D2D30EA00AF2D7A08003A03192F
:1018F800732C013A0319702C033A0319732C013A1B
:101908000319762C073A0319762CAF2DE9012B30F1
:10191800EA00AF2DE9013230EA00AF2DE901393094
:10192800EA00AF2D7A08003A03198E2C013A031900
:101938008A2C033A03198E2C013A0319922C073A80
:101948000319922CAF2DE9011A30EA00AF2DE901F5
:101958001F30EA00AF2D7A08003A0319A72C013A84
:101968000319A72C033A0319A72C013A0319AB2C26
:10197800073A0319AB2CAF2D0130E9001030EA000B
:10198800AF2D7A08003A0319C02C013A0319C02C6C
:10199800033A0319C02C013A0319C02C073A03195A
:1019A800C02CAF2D0130E9002430EA00AF2D7A08B1
:1019B800003A0319D62C013A0319D62C033A031915
:1019C800D62C013A0319D62C073A0319D62CAF2D79
:1019D800E9012430EA00AF2D7A08003A0319AB2C4C
:1019E800013A0319AB2C033A0319AB2C013A03193A
:1019F800EC2C073A0319EC2CAF2DE9011D30EA0055
:101A0800AF2D7A08003A0319012D013A0319012D67
:101A1800033A0319012D013A0319012D073A031955
:101A2800012DAF2DE9012E30EA00E9013530EA0039
:101A38000130E900022D7A08003A0319192D013AFC
:101A48000319162D033A0319192D013A03191C2DF0
:101A5800073A03191C2DAF2DE9010A30EA00E90104
:101A68001430EA00AF2D7A08003A0319332D013AF1
:101A78000319302D033A0319332D013A0319332D75
:101A8800073A0319332DAF2DE9010630EA00AF2DCF
:101A98007A08003A0319482D013A0319482D033AE8
:101AA8000319482D013A0319482D073A0319482DFF
:101AB800AF2DE9011030EA00E9011530EA00A72C42
:101AC8007A08003A0319602D013A03195D2D033A8B
:101AD8000319602D013A0319A72C073A0319A72CFB
:101AE800AF2D8E2C7A08003A03198E2C013A03196F
:101AF800752D033A03198E2C013A03198E2C073AD7
:101B080003198E2CAF2D831203136B08003A0319A7
:101B1800792C013A0319962C033A0319AF2C013A90
:101B28000319C52C073A0319DB2C013A0319F02CC9
:101B3800033A0319052D013A03191F2D0F3A03190A
:101B4800372D013A03194C2D033A0319642D013A34
:101B58000319762DAF2D0800750883120313A8000A
:101B68008030A8057508A0002007AA00F41FBD2D25
:101B7800BE2DBF2D2A142A080319C32DC42DD42D18
:101B88002A0A031DC82DC92DD12D0030F5000030BB
:101B9800F4000030F3000030F200F417F501DC2DFA
:101BA8000030F5000030F4000030F3000030F2009F
:101BB8007908A9008030A905290828060319E52D08
:101BC800E62DE72D28177908A0002007A900F81F9F
:101BD800EE2DEF2DF02D291429080319F42DF52DDC
:101BE800052E290A031DF92DFA2D022E0030F900C1
:101BF8000030F8000030F7000030F600F817F9015F
:101C08000D2E0030F9000030F8000030F7000030E9
:101C1800F6002A0829020318122E132E372E281F21
:101C2800162E172E192E8030A8062A08AB00290870
:101C3800AA002B08A9007208AB007608F2002B084E
:101C4800F6007308AB007708F3002B08F700740858
:101C5800AB007808F4002B08F8007508AB00790889
:101C6800F5002B08F900AB012908A000A101210803
:101C7800A3002A082002A200031CA3032308803A19
:101C8800FF0080307F02031D4B2E1A302202031CF6
:101C98004E2E4F2E842E7508740473047204031D8F
:101CA800562E582E0130592E003083120313AB00E4
:101CB8000030F5000030F4000030F3000030F2008E
:101CC8002908AA008C2E2B1C6A2E6B2E722E2B082C
:101CD800A0000310200C0138AB00742E0310AB0CCD
:101CE800721C772E782E792EAB170130A000750D57
:101CF800F50CF40CF30CF20CA00B7B2E0130AA07A8
:101D08008312031329082A02031C8B2E8C2E672E9C
:101D1800281B8F2E902ED72E2A08031D942E952E21
:101D28009E2E0030F5000030F4000030F300003043
:101D3800F200FF2F7608F207770803110318013E17
:101D48000319A72EF307780803110318013E031996
:101D5800AE2EF407790803110318013E0319B52EB6
:101D6800F507751CB82EB92E8B2F2B1CBC2EBD2E3B
:101D7800C42E2B08A0000310200C0138AB00C62E7F
:101D88000310AB0C721CC92ECA2ECB2EAB17013018
:101D9800A000750DF50CF40CF30CF20CA00BCD2E75
:101DA8000130AA078B2F7508803AFF007908803A1E
:101DB8007F02031DE92E78087402031DE92E7708B7
:101DC8007302031DE92E760872020318EC2EED2E1D
:101DD800442FFF30A000FF30A100FF30A200FF30E9
:101DE800A3007608A4007708A5007808A60079085B
:101DF800A7007208A4027308031C730F042F052F91
:101E0800A5027408031C740F0A2F0B2FA60275086D
:101E1800031C750F102F112FA7022408A0072508EF
:101E28000318250F182F192FA10726080318260FA6
:101E38001E2F1F2FA20727080318270AA307230806
:101E4800F5002208F4002108F3002008F200803091
:101E5800A8062B03FF3AAB002B08031D342F352FA0
:101E6800522F0130F207003003180130F307003019
:101E780003180130F407003003180130F507522F1A
:101E88007608F2027708031C770FF3027808031C20
:101E9800780FF4027908031C790FF50275087404A9
:101EA80073047204031D592F5A2F872F2B08031D03
:101EB8005E2F5F2F872F0030F5000030F4000030D0
:101EC800F3000030F200FF2F0130A0000310F20DE4
:101ED800F30DF40DF50DA00B6A2FAB1F742F752FA2
:101EE800762F72142B1C792F7A2F7E2F03142B0D2B
:101EF800AB00802F0310AB0D2A080319842F852F00
:101F0800872F0130AA02F41F8A2F8B2F682FA9016F
:101F1800AB1F8F2F902F9E2F2B087F390319952FDA
:101F2800962F992F0130A9009E2F721C9C2F9D2F50
:101F38009E2F962F29080319A22FA32FD52F0130E2
:101F4800F207003003180130F3070030031801309E
:101F5800F407003003180130F507751CB42FB52FAE
:101F6800D52F7208A0007308A1007408A200750894
:101F7800A3000130A400230DA30CA20CA10CA00CFB
:101F8800A40BBF2F2308F5002208F4002108F30052
:101F98002008F2002A0A0319D22FD32FD52F013097
:101FA800AA072A0A0319D92FDA2FDF2F2A08031DB7
:101FB800DE2FDF2FED2F0030F5000030F400003069
:101FC800F3000030F2002A08031DEB2FEC2FED2F51
:101FD800A8012A1CF02FF12FF32FF417F52F7F30CB
:101FE800F4052A08A0000310200CF500A81FFD2FF7
:101FF800FE2FFF2FF517080050346C346534613418
:1020080073346534203463346C346F34733465341A
:10201800203464346F346F347234003435343A34D5
:1020280053345434413452345434203436343A34EA
:1020380050344134553453344534003457346134C2
:102048007334683469346E346734203450347234ED
:102058006F346734723461346D340034573461340A
:102068007334683469346E34673420344D346134E1
:102078006334683469346E346534003450347234EF
:102088006F346734203463346F346D3470346C3497
:1020980065347434653464340034523465346D34D2
:1020A8006F3476346534203463346C346F3474346C
:1020B8006834733400345034723465347334733490
:1020C80020344B34653479343534203474346F34E7
:1020D8000034573441345434453452345F344C342A
:1020E8004534563445344C343A34003444346F342F
:1020F8006F34723420346934733420346F3470345C
:1021080065346E3400345034723465347334733447
:102118002034533477346934743463346834003485
:1021280050346F3477346534723469346E346734BC
:1021380020346F346E3400345334573435342034FB
:102148003A342034533454344134523454340034FF
:1021580041347134753461342034733474346F34D9
:1021680072346534003453347434613469346E34F1
:10217800203477346134733468340034453463343C
:102188006F3443346F34743474346F346E3473344E
:10219800003442346534643420347334683465342C
:1021A800653474347334003453345734363420343B
:1021B8003A342034533454344F3450340034463491
:1021C80075346E346334743469346F346E343A342D
:1021D8000034443465346C346934633461347434A1
:1021E80065347334003457346134733468342034BC
:1021F8006F346E346C3479340034523469346E344C
:10220800733465342B3444347234793400344434B0
:102218007234793420346F346E346C347934003449
:1022280050346F3477346534723420344F346E341C
:10223800003457346F346F346C3465346E3473340F
:1022480000344D3465346434693475346D34003485
:10225800573468346934743465347334003454340E
:1022680069346D3465343A340034503472346F3420
:1022780067343A340034523469346E347334653414
:1022880000344434613469346C347934003448346B
:1022980065346134763479340034483469346734C9
:1022A8006834003457346134733468340034533438
:1022B800703469346E3400344134753474346F3496
:1022C80000344C346F34773400344D34613478340E
:0622D80000342A3400343A
:10299A008316031306083F3886000800FA308316A8
:1029AA00031392008C148312031312110800831666
:1029BA0003138801091189100A168A1129260A1691
:1029CA008A110800F20101300A168A114D250A16E9
:1029DA008A110430F7003D30F600F60BF22CF70BA3
:1029EA00F22CF72C0800F400F301741CFD2CFE2CC9
:1029FA00002D7208F3070310F20D0310F40C74088B
:102A0A00031D082D092DFA2C730808007E088A0078
:102A1A007F0882000A168A110B250A168A1180007D
:102A2A00840A04087D0603190034FF0A0319FE0A02
:102A3A000F2D83120313A100F20120080A168A112E
:102A4A004D250A168A11F201F20A8312031321088C
:102A5A000A168A114D250A168A1108000A168A11C1
:102A6A00DC240A168A110A168A11CD240A168A113A
:102A7A000A168A11D3240A168A118B170B17831682
:102A8A000313871007118312031387100711080015
:102A9A00F5007218512D552D831203130915582D5F
:102AAA00831203130911750888008914A630F300EC
:102ABA00F30B5D2D00008312031389101B30F40001
:102ACA009E30F300F30B672DF40B672D000008000E
:102ADA00453491344B349134ED3490342C34913460
:102AEA00B7349034C23490341D349134CD34903498
:102AFA00013491340B349134F7349034AC3490343B
:102B0A00603491346534913425349134513491349C
:102B1A0069349134803083120313C3064708F500E1
:102B2A004608F4004508F3004408F2004308F90097
:102B3A004208F8004108F7004008F6000A128A1510
:102B4A00B0250A168A11750883120313C300740884
:102B5A00C2007308C1007208C00008008312031380
:102B6A00A400A001A1017208F400F5017408A200F2
:102B7A007508A300241CC22DC32DC92D2208A00745
:102B8A000318A10A2308A10701300310A20DA30DFF
:102B9A00FF3E031DCA2D0310A40C2408031DD62DC5
:102BAA00D72DBF2D2108F3002008F2000800831258
:102BBA0003138C1CE12DE22D222E01308316031300
:102BCA00C207003003180130C30700300318013070
:102BDA00C407003003180130C507203042064E30C2
:102BEA000319430644044504031DFC2DFD2D1F2E25
:102BFA00831203136A080319032E042E072E0130C9
:102C0A00EA02152E6A08031D0B2E0C2E152E6908D2
:102C1A000319102E112E152E0130E9023C30EA005C
:102C2A00003083160313C5000030C4000030C3000F
:102C3A000030C200831203138C1071088A00700ED0
:102C4A008300FE0E7E0E0900C330F700CD30F60079
:102C5A00F60B2D2EF70B2D2EF20133300A168A11A0
:102C6A004D250A168A111B30F7009E30F600F60B26
:102C7A003C2EF70B3C2E0000F20133300A168A1163
:102C8A004D250A168A11A630F600F60B4A2E0000C8
:102C9A00F20133300A168A114D250A168A11552E69
:102CAA00562E0000F2013C300A168A114D250A16EA
:102CBA008A11A630F600F60B602E0000F2010130F0
:102CCA000A168A114D250A168A110430F7003D307A
:102CDA00F600F60B6E2EF70B6E2E732EF2010C30E9
:102CEA000A168A114D250A168A11A630F600F60B25
:102CFA007C2E00000800F701F51F842E852E8C2EED
:102D0A00F409F509F40A0319F50A0130F700F31F6B
:102D1A008F2E902E952EF209F309F20A0319F30A5F
:102D2A007208730403199A2E9B2EC82E0130F600DE
:102D3A00A72E01300310F20DF30DFF3E031D9F2E47
:102D4A000130F607F31FAA2EAB2E9E2E73087502CA
:102D5A00031DB12E72087402031CB42EB52EBB2EAD
:102D6A007208F4027308031CF503F502013003101C
:102D7A00F30CF20CFF3E031DBC2E0130F602031DBC
:102D8A00C72EC82EAB2E77080319CC2ECD2ED22EE5
:102D9A00F409F509F40A0319F50A7508F300740829
:102DAA00F2000800831203130618DC2EDD2E342FDE
:102DBA000711121187140A168A11E7240A168A11B2
:102DCA007A3083120313A0009030A1008030A20051
:102DDA000A128A1512200A168A1100308312031366
:102DEA00A0009030A100C030A2000A128A15122059
:102DFA000A168A1183120313061C042F052FFF2EAD
:102E0A000715121587100A168A11E7240A168A115D
:102E1A00E33083120313A0009030A1008030A20097
:102E2A000A128A1512200A168A11333083120313E2
:102E3A00A0009130A100C030A2000A128A15122007
:102E4A000A168A11123083120313A0009030A100CF
:102E5A009030A2000A128A1512200A168A11080056
:102E6A00F701F31F392F3A2F412FF209F309F20A1A
:102E7A000319F30A0130F700F51F442F452F4C2F91
:102E8A00F409F509F40A0319F50A0130F706F801FD
:102E9A00F901720873040319532F542F892F013033
:102EAA00F600602F01300310F20DF30DFF3E031DF3
:102EBA00582F0130F607F31F632F642F572F013065
:102ECA000310F80DF90DFF3E031D652F73087502F7
:102EDA00031D712F72087402031C742F752F7C2F27
:102EEA007208F4027308031CF503F5027814013022
:102EFA000310F30CF20CFF3E031D7D2F0130F60286
:102F0A00031D882F892F642F770803198D2F8E2F81
:102F1A00932FF809F909F80A0319F90A7908F3004D
:102F2A007808F200080083120313A6012608803EDF
:102F3A00A000FF300A168A111E250A168A11A5302A
:102F4A0083120313A300A30BA82FAB2F0130831204
:102F5A000313A60710302602031CB42FB52F9B2F8C
:102F6A009430A0009030A100C330A2000A128A1542
:102F7A0012200A168A11323083120313A0009030ED
:102F8A00A1009130A2000A128A1512200A168A118B
:102F9A0083120313A7012708D03EA000FF300A16A8
:102FAA008A111E250A168A11033083120313A500FB
:102FBA008A30A4005530A300A30BE12FA40BE12F04
:102FCA00A50BE12F013083120313A7071030270244
:102FDA00031CF02FF12FD02F333083120313A500D7
:102FEA00BB30A400DF30A300A30BF92FA40BF92FE9
:062FFA00A50BF92F0800F1
:02400E00FB3F76
:00000001FF
